{
  "contractName": "Faucet",
  "abi": [
    {
      "inputs": [],
      "name": "numOfFunders",
      "outputs": [
        {
          "internalType": "uint256",
          "name": "",
          "type": "uint256"
        }
      ],
      "stateMutability": "view",
      "type": "function"
    },
    {
      "inputs": [],
      "name": "owner",
      "outputs": [
        {
          "internalType": "address",
          "name": "",
          "type": "address"
        }
      ],
      "stateMutability": "view",
      "type": "function"
    },
    {
      "inputs": [],
      "name": "test3",
      "outputs": [
        {
          "internalType": "uint256",
          "name": "",
          "type": "uint256"
        }
      ],
      "stateMutability": "pure",
      "type": "function"
    },
    {
      "inputs": [],
      "name": "testNum",
      "outputs": [
        {
          "internalType": "uint256",
          "name": "",
          "type": "uint256"
        }
      ],
      "stateMutability": "view",
      "type": "function"
    },
    {
      "stateMutability": "payable",
      "type": "receive"
    },
    {
      "inputs": [],
      "name": "test1",
      "outputs": [],
      "stateMutability": "nonpayable",
      "type": "function"
    },
    {
      "inputs": [],
      "name": "test2",
      "outputs": [],
      "stateMutability": "nonpayable",
      "type": "function"
    },
    {
      "inputs": [
        {
          "internalType": "address",
          "name": "newOwner",
          "type": "address"
        }
      ],
      "name": "transferOwnership",
      "outputs": [],
      "stateMutability": "nonpayable",
      "type": "function"
    },
    {
      "inputs": [],
      "name": "emitLog",
      "outputs": [
        {
          "internalType": "bytes32",
          "name": "",
          "type": "bytes32"
        }
      ],
      "stateMutability": "pure",
      "type": "function"
    },
    {
      "inputs": [],
      "name": "addFunds",
      "outputs": [],
      "stateMutability": "payable",
      "type": "function"
    },
    {
      "inputs": [
        {
          "internalType": "uint256",
          "name": "withdrawAmount",
          "type": "uint256"
        }
      ],
      "name": "withdraw",
      "outputs": [],
      "stateMutability": "nonpayable",
      "type": "function"
    },
    {
      "inputs": [],
      "name": "getAllFunders",
      "outputs": [
        {
          "internalType": "address[]",
          "name": "",
          "type": "address[]"
        }
      ],
      "stateMutability": "view",
      "type": "function"
    },
    {
      "inputs": [
        {
          "internalType": "uint8",
          "name": "index",
          "type": "uint8"
        }
      ],
      "name": "getFunderAtIndex",
      "outputs": [
        {
          "internalType": "address",
          "name": "",
          "type": "address"
        }
      ],
      "stateMutability": "view",
      "type": "function"
    },
    {
      "inputs": [],
      "name": "justTesting",
      "outputs": [
        {
          "internalType": "uint256",
          "name": "",
          "type": "uint256"
        }
      ],
      "stateMutability": "pure",
      "type": "function"
    }
  ],
  "bytecode": "0x608060405234801561001057600080fd5b50336000806101000a81548173ffffffffffffffffffffffffffffffffffffffff021916908373ffffffffffffffffffffffffffffffffffffffff1602179055506103e8600181905550610d14806100696000396000f3fe6080604052600436106100c65760003560e01c80638da5cb5b1161007f578063ae28f1ed11610059578063ae28f1ed1461021c578063af7f2c9b14610247578063f2fde38b14610272578063f42c13bf1461029b576100cd565b80638da5cb5b146101bc578063a23f8a3d146101e7578063a26759cb14610212576100cd565b80630a8e8e01146100d25780630a93cf33146100fd5780632e1a7d4d1461013a57806366e41cb7146101635780636b59084d1461017a5780636fbbb55d14610191576100cd565b366100cd57005b600080fd5b3480156100de57600080fd5b506100e76102c6565b6040516100f4919061082b565b60405180910390f35b34801561010957600080fd5b50610124600480360381019061011f9190610884565b6102cf565b60405161013191906108f2565b60405180910390f35b34801561014657600080fd5b50610161600480360381019061015c9190610939565b61030f565b005b34801561016f57600080fd5b506101786103a6565b005b34801561018657600080fd5b5061018f610436565b005b34801561019d57600080fd5b506101a66104c6565b6040516101b39190610a24565b60405180910390f35b3480156101c857600080fd5b506101d16105c0565b6040516101de91906108f2565b60405180910390f35b3480156101f357600080fd5b506101fc6105e4565b604051610209919061082b565b60405180910390f35b61021a6105ed565b005b34801561022857600080fd5b5061023161070d565b60405161023e919061082b565b60405180910390f35b34801561025357600080fd5b5061025c610713565b604051610269919061082b565b60405180910390f35b34801561027e57600080fd5b5061029960048036038101906102949190610a72565b610719565b005b3480156102a757600080fd5b506102b06107ea565b6040516102bd9190610ab8565b60405180910390f35b60006064905090565b6000600460008360ff16815260200190815260200160002060009054906101000a900473ffffffffffffffffffffffffffffffffffffffff169050919050565b80670de0b6b3a764000081111561035b576040517f08c379a000000000000000000000000000000000000000000000000000000000815260040161035290610b56565b60405180910390fd5b3373ffffffffffffffffffffffffffffffffffffffff166108fc839081150290604051600060405180830381858888f193505050501580156103a1573d6000803e3d6000fd5b505050565b60008054906101000a900473ffffffffffffffffffffffffffffffffffffffff1673ffffffffffffffffffffffffffffffffffffffff163373ffffffffffffffffffffffffffffffffffffffff1614610434576040517f08c379a000000000000000000000000000000000000000000000000000000000815260040161042b90610be8565b60405180910390fd5b565b60008054906101000a900473ffffffffffffffffffffffffffffffffffffffff1673ffffffffffffffffffffffffffffffffffffffff163373ffffffffffffffffffffffffffffffffffffffff16146104c4576040517f08c379a00000000000000000000000000000000000000000000000000000000081526004016104bb90610be8565b60405180910390fd5b565b6060600060025467ffffffffffffffff8111156104e6576104e5610c08565b5b6040519080825280602002602001820160405280156105145781602001602082028036833780820191505090505b50905060005b6002548110156105b8576004600082815260200190815260200160002060009054906101000a900473ffffffffffffffffffffffffffffffffffffffff1682828151811061056b5761056a610c37565b5b602002602001019073ffffffffffffffffffffffffffffffffffffffff16908173ffffffffffffffffffffffffffffffffffffffff168152505080806105b090610c95565b91505061051a565b508091505090565b60008054906101000a900473ffffffffffffffffffffffffffffffffffffffff1681565b60006004905090565b6000339050600360008273ffffffffffffffffffffffffffffffffffffffff1673ffffffffffffffffffffffffffffffffffffffff16815260200190815260200160002060009054906101000a900460ff1661070a5760006002600081548092919061065890610c95565b9190505590506001600360008473ffffffffffffffffffffffffffffffffffffffff1673ffffffffffffffffffffffffffffffffffffffff16815260200190815260200160002060006101000a81548160ff021916908315150217905550816004600083815260200190815260200160002060006101000a81548173ffffffffffffffffffffffffffffffffffffffff021916908373ffffffffffffffffffffffffffffffffffffffff160217905550505b50565b60015481565b60025481565b60008054906101000a900473ffffffffffffffffffffffffffffffffffffffff1673ffffffffffffffffffffffffffffffffffffffff163373ffffffffffffffffffffffffffffffffffffffff16146107a7576040517f08c379a000000000000000000000000000000000000000000000000000000000815260040161079e90610be8565b60405180910390fd5b806000806101000a81548173ffffffffffffffffffffffffffffffffffffffff021916908373ffffffffffffffffffffffffffffffffffffffff16021790555050565b60007f48656c6c6f20776f726c64000000000000000000000000000000000000000000905090565b6000819050919050565b61082581610812565b82525050565b6000602082019050610840600083018461081c565b92915050565b600080fd5b600060ff82169050919050565b6108618161084b565b811461086c57600080fd5b50565b60008135905061087e81610858565b92915050565b60006020828403121561089a57610899610846565b5b60006108a88482850161086f565b91505092915050565b600073ffffffffffffffffffffffffffffffffffffffff82169050919050565b60006108dc826108b1565b9050919050565b6108ec816108d1565b82525050565b600060208201905061090760008301846108e3565b92915050565b61091681610812565b811461092157600080fd5b50565b6000813590506109338161090d565b92915050565b60006020828403121561094f5761094e610846565b5b600061095d84828501610924565b91505092915050565b600081519050919050565b600082825260208201905092915050565b6000819050602082019050919050565b61099b816108d1565b82525050565b60006109ad8383610992565b60208301905092915050565b6000602082019050919050565b60006109d182610966565b6109db8185610971565b93506109e683610982565b8060005b83811015610a175781516109fe88826109a1565b9750610a09836109b9565b9250506001810190506109ea565b5085935050505092915050565b60006020820190508181036000830152610a3e81846109c6565b905092915050565b610a4f816108d1565b8114610a5a57600080fd5b50565b600081359050610a6c81610a46565b92915050565b600060208284031215610a8857610a87610846565b5b6000610a9684828501610a5d565b91505092915050565b6000819050919050565b610ab281610a9f565b82525050565b6000602082019050610acd6000830184610aa9565b92915050565b600082825260208201905092915050565b7f43616e6e6f74207769746864726177206d6f7265207468616e2031206574686560008201527f7200000000000000000000000000000000000000000000000000000000000000602082015250565b6000610b40602183610ad3565b9150610b4b82610ae4565b604082019050919050565b60006020820190508181036000830152610b6f81610b33565b9050919050565b7f4f6e6c79206f776e65722063616e2063616c6c20746869732066756e6374696f60008201527f6e00000000000000000000000000000000000000000000000000000000000000602082015250565b6000610bd2602183610ad3565b9150610bdd82610b76565b604082019050919050565b60006020820190508181036000830152610c0181610bc5565b9050919050565b7f4e487b7100000000000000000000000000000000000000000000000000000000600052604160045260246000fd5b7f4e487b7100000000000000000000000000000000000000000000000000000000600052603260045260246000fd5b7f4e487b7100000000000000000000000000000000000000000000000000000000600052601160045260246000fd5b6000610ca082610812565b91507fffffffffffffffffffffffffffffffffffffffffffffffffffffffffffffffff821415610cd357610cd2610c66565b5b60018201905091905056fea26469706673582212208f21840bf22471513db3a0c9a74eb4b92f09f8f7be81b988fd354c07f0f9703364736f6c634300080c0033",
  "immutableReferences": {},
  "source": "// SPDX-License-Identifier: MIT\r\npragma solidity >=0.4.22 <0.9.0;\r\n\r\nimport \"./Owned.sol\";\r\nimport \"./Logger.sol\";\r\nimport \"./IFaucet.sol\";\r\n\r\ncontract Faucet is Owned, Logger, IFaucet {\r\n\r\n    //address[] public funders;\r\n    \r\n    uint public numOfFunders;\r\n    mapping(address => bool) private funders;\r\n    mapping(uint => address) private lutFunders;\r\n\r\n    modifier limitWithdraw(uint withdrawAmount) {\r\n        require(\r\n            withdrawAmount <= 1000000000000000000, \r\n            \"Cannot withdraw more than 1 ether\"\r\n            );\r\n        _;\r\n    }\r\n\r\n    function test1() external onlyOwner {\r\n        // some admin management stuff\r\n    }\r\n\r\n    function test2() external onlyOwner {\r\n        // some admin management stuff\r\n    }\r\n\r\n    function transferOwnership(address newOwner) external onlyOwner {\r\n        owner = newOwner;\r\n    }\r\n    // no function name specified - this will be called\r\n    // external - part of contract interface, \r\n    // could be called from other contracts and txs\r\n    receive() external payable {}\r\n\r\n    function emitLog() public override pure returns(bytes32) {\r\n        return \"Hello world\";\r\n    }\r\n\r\n    function addFunds() external override payable {\r\n        //funders.push(msg.sender);\r\n        address funder = msg.sender;\r\n        if(!funders[funder]) {\r\n            uint index = numOfFunders++;\r\n            funders[funder] = true;\r\n            lutFunders[index] = funder;\r\n        }\r\n    }\r\n\r\n    function withdraw(uint withdrawAmount) external override limitWithdraw (withdrawAmount) {        \r\n        payable(msg.sender).transfer(withdrawAmount);\r\n    }\r\n    // function getAllFunders() public view returns(address[] memory) {\r\n    //     return funders;\r\n    // }\r\n    function getAllFunders() external view returns(address[] memory) {\r\n        address[] memory _funders = new address[](numOfFunders);\r\n        for(uint i = 0; i < numOfFunders; i++) {\r\n            _funders[i] = lutFunders[i];\r\n        }\r\n        return _funders;\r\n    }\r\n    function getFunderAtIndex(uint8 index) external view returns(address) {\r\n        //address[] memory _funders = getAllFunders();\r\n        return lutFunders[index];\r\n    }\r\n    // read-only calls, no gass fees\r\n    // view - will not change storage state\r\n    // pure - won't even view storage stats \r\n    function justTesting() external pure returns(uint){\r\n        return 2 + 2;\r\n    }\r\n}\r\n\r\n// const instance = await Faucet.deployed()\r\n// instance.addFunds({from: accounts[0], value: \"2000000000000000000\"})\r\n// instance.addFunds({from: accounts[1], value: \"2000000000000000000\"})\r\n// instance.getFunderAtIndex(0)\r\n// instance.getAllFunders()\r\n// instance.withdraw(\"10000000\", {from: accounts[1]})",
  "sourcePath": "C:\\Work\\CodeJS\\nextjs-solidity-coursework\\blockchain\\faucet\\contracts\\FaucetContract.sol",
  "compiler": {
    "name": "solc",
    "version": "0.8.12+commit.f00d7308.Emscripten.clang"
  },
  "schemaVersion": "3.4.6",
  "updatedAt": "2022-03-25T22:17:25.608Z",
  "devdoc": {
    "kind": "dev",
    "methods": {},
    "version": 1
  },
  "userdoc": {
    "kind": "user",
    "methods": {},
    "version": 1
  }
}