{
  "contractName": "Storage",
  "abi": [
    {
      "inputs": [],
      "name": "a",
      "outputs": [
        {
          "internalType": "uint8",
          "name": "",
          "type": "uint8"
        }
      ],
      "stateMutability": "view",
      "type": "function"
    },
    {
      "inputs": [],
      "name": "b",
      "outputs": [
        {
          "internalType": "uint16",
          "name": "",
          "type": "uint16"
        }
      ],
      "stateMutability": "view",
      "type": "function"
    },
    {
      "inputs": [],
      "name": "c",
      "outputs": [
        {
          "internalType": "address",
          "name": "",
          "type": "address"
        }
      ],
      "stateMutability": "view",
      "type": "function"
    },
    {
      "inputs": [],
      "name": "e",
      "outputs": [
        {
          "internalType": "uint64",
          "name": "",
          "type": "uint64"
        }
      ],
      "stateMutability": "view",
      "type": "function"
    },
    {
      "inputs": [],
      "name": "f",
      "outputs": [
        {
          "internalType": "uint256",
          "name": "",
          "type": "uint256"
        }
      ],
      "stateMutability": "view",
      "type": "function"
    },
    {
      "inputs": [],
      "name": "g",
      "outputs": [
        {
          "internalType": "uint8",
          "name": "",
          "type": "uint8"
        }
      ],
      "stateMutability": "view",
      "type": "function"
    },
    {
      "inputs": [],
      "name": "h",
      "outputs": [
        {
          "internalType": "uint256",
          "name": "",
          "type": "uint256"
        }
      ],
      "stateMutability": "view",
      "type": "function"
    }
  ],
  "bytecode": "0x608060405260076000806101000a81548160ff021916908360ff160217905550600a600060016101000a81548161ffff021916908361ffff16021790555073dbc77ed01138794e0c00601a4f91c562326b0b6d600060036101000a81548173ffffffffffffffffffffffffffffffffffffffff021916908373ffffffffffffffffffffffffffffffffffffffff1602179055506001600060176101000a81548160ff021916908315150217905550600f600060186101000a81548167ffffffffffffffff021916908367ffffffffffffffff16021790555060c86001556028600260006101000a81548160ff021916908360ff16021790555061031560035534801561010a57600080fd5b5061034b8061011a6000396000f3fe608060405234801561001057600080fd5b506004361061007d5760003560e01c8063b8c9d3651161005b578063b8c9d365146100dc578063c3da42b8146100fa578063e2179b8e14610118578063ffae15ba146101365761007d565b80630dbe671f1461008257806326121ff0146100a05780634df7e3d0146100be575b600080fd5b61008a610154565b60405161009791906101f4565b60405180910390f35b6100a8610165565b6040516100b59190610228565b60405180910390f35b6100c661016b565b6040516100d39190610260565b60405180910390f35b6100e461017f565b6040516100f19190610228565b60405180910390f35b610102610185565b60405161010f91906102bc565b60405180910390f35b6101206101ab565b60405161012d91906101f4565b60405180910390f35b61013e6101be565b60405161014b91906102fa565b60405180910390f35b60008054906101000a900460ff1681565b60015481565b600060019054906101000a900461ffff1681565b60035481565b600060039054906101000a900473ffffffffffffffffffffffffffffffffffffffff1681565b600260009054906101000a900460ff1681565b600060189054906101000a900467ffffffffffffffff1681565b600060ff82169050919050565b6101ee816101d8565b82525050565b600060208201905061020960008301846101e5565b92915050565b6000819050919050565b6102228161020f565b82525050565b600060208201905061023d6000830184610219565b92915050565b600061ffff82169050919050565b61025a81610243565b82525050565b60006020820190506102756000830184610251565b92915050565b600073ffffffffffffffffffffffffffffffffffffffff82169050919050565b60006102a68261027b565b9050919050565b6102b68161029b565b82525050565b60006020820190506102d160008301846102ad565b92915050565b600067ffffffffffffffff82169050919050565b6102f4816102d7565b82525050565b600060208201905061030f60008301846102eb565b9291505056fea2646970667358221220451fffc19d9fddec83162608b6cf7b07a28938beb42bcc16e440c31a1b90808b64736f6c634300080c0033",
  "immutableReferences": {},
  "source": "// SPDX-License-Identifier: MIT\r\npragma solidity >=0.4.22 <0.9.0;\r\n\r\ncontract Storage {\r\n    uint8 public a = 7;\r\n    uint16 public b = 10;\r\n    address public c = 0xDBC77ED01138794e0C00601a4f91C562326b0B6d;\r\n    bool d = true;\r\n    uint64 public e = 15;\r\n\r\n    uint256 public f = 200;\r\n    uint8 public g = 40;\r\n    uint256 public h = 789;\r\n}",
  "sourcePath": "C:\\Work\\CodeJS\\nextjs-solidity-coursework\\blockchain\\faucet\\contracts\\Storage.sol",
  "compiler": {
    "name": "solc",
    "version": "0.8.12+commit.f00d7308.Emscripten.clang"
  },
  "schemaVersion": "3.4.6",
  "updatedAt": "2022-03-25T22:17:25.625Z",
  "devdoc": {
    "kind": "dev",
    "methods": {},
    "version": 1
  },
  "userdoc": {
    "kind": "user",
    "methods": {},
    "version": 1
  }
}