{
  "contractName": "Test",
  "abi": [
    {
      "inputs": [
        {
          "internalType": "uint256",
          "name": "testNum",
          "type": "uint256"
        }
      ],
      "name": "test",
      "outputs": [
        {
          "internalType": "uint256",
          "name": "data",
          "type": "uint256"
        }
      ],
      "stateMutability": "pure",
      "type": "function"
    },
    {
      "inputs": [],
      "name": "test2",
      "outputs": [
        {
          "internalType": "uint256",
          "name": "data",
          "type": "uint256"
        }
      ],
      "stateMutability": "pure",
      "type": "function"
    },
    {
      "inputs": [],
      "name": "test3",
      "outputs": [
        {
          "internalType": "uint256",
          "name": "data",
          "type": "uint256"
        }
      ],
      "stateMutability": "pure",
      "type": "function"
    }
  ],
  "bytecode": "0x608060405234801561001057600080fd5b50610215806100206000396000f3fe608060405234801561001057600080fd5b50600436106100415760003560e01c80630a8e8e011461004657806329e99f071461006457806366e41cb714610094575b600080fd5b61004e6100b2565b60405161005b9190610166565b60405180910390f35b61007e600480360381019061007991906101b2565b6100f0565b60405161008b9190610166565b60405180910390f35b61009c610132565b6040516100a99190610166565b60405180910390f35b600060d260405260006040518060600160405280600160ff168152602001600260ff168152602001600360ff16815250905060206090015191505090565b60006004604051505060006040518060600160405280600160ff168152602001600260ff168152602001600360ff168152509050602060900151915050919050565b60006040516468656c6c6f6000820152600081015191505090565b6000819050919050565b6101608161014d565b82525050565b600060208201905061017b6000830184610157565b92915050565b600080fd5b61018f8161014d565b811461019a57600080fd5b50565b6000813590506101ac81610186565b92915050565b6000602082840312156101c8576101c7610181565b5b60006101d68482850161019d565b9150509291505056fea2646970667358221220353d2df399eb86979b349927ece64e3719f002aa2c08c1b5b01d779c3a2b077464736f6c634300080c0033",
  "immutableReferences": {},
  "source": "// SPDX-License-Identifier: MIT\r\npragma solidity >=0.4.22 <0.9.0;\r\n\r\ncontract Test {\r\n    function test(uint testNum) external pure returns(uint data) {\r\n\r\n        assembly {\r\n            let _num := 4\r\n            let _fmp := mload(0x40)\r\n            //mstore(0x40, 0x90)\r\n        }\r\n        uint8[3] memory items = [1,2,3];\r\n\r\n        assembly {\r\n            data := mload(add(0x90, 0x20)) \r\n            // value from array is returned\r\n            // 0x20 is 32 bytes length to skip 1st element and return the second\r\n        }\r\n        //return testNum;\r\n    }\r\n\r\n    function test2() external pure returns(uint data) {\r\n\r\n        assembly {\r\n            let fmp := mload(0x40)\r\n            //  hello\r\n            mstore(add(fmp, 0x00), 0x68656C6C6F)\r\n            data := mload(add(fmp, 0x00))\r\n        }\r\n    }\r\n\r\n    function test3() external pure returns(uint data) {\r\n\r\n        assembly {\r\n            mstore(0x40, 0xd2)  // stored with offset\r\n        }\r\n        uint8[3] memory items = [1,2,3];\r\n\r\n        assembly {\r\n            data := mload(add(0x90, 0x20))\r\n        }\r\n    }\r\n\r\n}",
  "sourcePath": "C:\\Work\\CodeJS\\nextjs-solidity-coursework\\blockchain\\faucet\\contracts\\Test.sol",
  "compiler": {
    "name": "solc",
    "version": "0.8.12+commit.f00d7308.Emscripten.clang"
  },
  "schemaVersion": "3.4.6",
  "updatedAt": "2022-03-25T22:17:25.628Z",
  "devdoc": {
    "kind": "dev",
    "methods": {},
    "version": 1
  },
  "userdoc": {
    "kind": "user",
    "methods": {},
    "version": 1
  }
}